:100000000C940D050C9451050C9451050C9451055C
:100010000C9451050C9451050C9451050C94510508
:100020000C9451050C9451050C945B0C0C942D0D03
:100030000C94A81B0C9451050C9451050C9451057B
:100040000C9451050C9451050C9451050C945105D8
:100050000C9451050C94471C0C9451050C945105BB
:100060000C9451050C9451050C9451050C945105B8
:100070000C9451050C9451050C9451050C945105A8
:100080000C9451050C9451050C9451050C94510598
:100090000C9451050C9451050C9451050C94510588
:1000A0000C9451050C9451050C945105920DB40D0E
:1000B0009F0EB40D9F0EF60D190E9F0E6E0E810E43
:1000C000D811D8110612061262129E128F148F14C4
:1000D000B6128F14AD13AD1369148F148F147D14E1
:1000E0001F141A16041D1B062021150807091905DF
:1000F00022231C170A0B11801E352B39797A7B2C91
:100100002425180C0E0D1080742A31287C7D7E7FEA
:1001100026271213330F36802D2E302F3438378098
:100120004B6579626F6172642073746172742E0A18
:100130000055534220636F6E666967757265642E61
:100140000A000D0A696E69740A005B445D005B4336
:100150005D001203480048004B00420020006D0083
:100160006F00640000000E0374002E006D002E006E
:100170006B002E0000000403090409028D00050134
:1001800000A032090400000103010100092111014E
:1001900000012240000705810308000A090401004C
:1001A0000103010200092111010001224D00070590
:1001B000820308000A09040200010300000009216B
:1001C000110100012236000705830308000A090413
:1001D0000300020300000009211101000122220096
:1001E000070584032000010705040320000109041A
:1001F000040001030000000921110100012239005F
:10020000070585032000011201100100000008ED20
:10021000FEFECA04010102000105010906A1010553
:100220000719E029E71500250195087501810205E8
:10023000081901290595057501910295017503912C
:10024000010507190029F71500250195F8750181A9
:1002500002C00631FF0974A1010975150026FF00CF
:100260009520750881020976150026FF00952075F6
:10027000089102C005010980A101850216810026AE
:10028000B7001A81002AB700751095018100C005DA
:100290000C0901A1018503160100269C021A010028
:1002A0002A9C02751095018100C005010902A10177
:1002B0000901A10005091901290515002501950568
:1002C000750181029501750381010501093009312C
:1002D0001581257F95027508810609381581257FCE
:1002E000950175088106050C0A38021581257F9550
:1002F0000175088106C0C005010906A1010507199D
:10030000E029E71500250195087501810295017521
:1003100008810105081901290595057501910295C6
:1003200001750391010507190029FF150026FF003B
:10033000950675088100C0636F6E73756D65723ABE
:1003400020253034580A0073797374656D3A20257E
:100350003034580A000A002530325820006B657985
:10036000626F6172643A20004C45443A2025303275
:10037000580A00253032583A202530386225730A51
:1003800000722F632030313233343536370A00643F
:10039000656C5F6B65795F6269743A2063616E2793
:1003A000742064656C3A20253032580A0061646418
:1003B0005F6B65795F6269743A2063616E277420B0
:1003C0006164643A20253032580A004F6E657368C4
:1003D0006F743A2074696D656F75740A00290A009C
:1003E0002575002F002575005D280025640020007C
:1003F000256400200025640020002564007C002581
:10040000303258006D6F7573656B6579205B62746F
:100410006E7C782079207620685D287265702F6167
:10042000636C293A205B006D6B5F776865656C5F74
:1004300074696D655F746F5F6D6178203D20256420
:100440000A006D6B5F776865656C5F6D61785F73DF
:1004500070656564203D2025640A006D6B5F7469DA
:100460006D655F746F5F6D6178203D2025640A00C3
:100470006D6B5F6D61785F7370656564203D2025ED
:10048000640A006D6B5F696E74657276616C203D05
:100490002025640A006D6B5F64656C6179203D20E6
:1004A00025640A006D6B5F776865656C5F74696DC4
:1004B000655F746F5F6D6178203D2025640A006D73
:1004C0006B5F776865656C5F6D61785F737065659C
:1004D00064203D2025640A006D6B5F74696D655F63
:1004E000746F5F6D6178203D2025640A006D6B5F3D
:1004F0006D61785F7370656564203D2025640A0036
:100500006D6B5F696E74657276616C203D20256449
:100510000A006D6B5F64656C6179203D2025640A7B
:10052000000A00257500363A20776865656C5F74AF
:10053000696D655F746F5F6D61783A20000A002510
:100540007500353A20776865656C5F6D61785F731B
:10055000706565643A20000A00257500343A2074FD
:10056000696D655F746F5F6D61783A20000A0025E0
:100570007500333A206D61785F73706565643A2069
:10058000000A00257500323A20696E746572766142
:100590006C286D73293A20000A00257500313A2035
:1005A00064656C6179282A31306D73293A20000A1C
:1005B000092D2056616C756573202D0A004D3E0093
:1005C0004D25643E20003F007365742064656661BC
:1005D000756C740A00433E2000776865726520647C
:1005E000656C74613A20637572736F723D25642C7B
:1005F00020776865656C3D25640A536565206874DD
:1006000074703A2F2F656E2E77696B697065646917
:10061000612E6F72672F77696B692F4D6F757365E8
:100620005F6B6579730A000A092D204D6F7573653C
:100630006B6579202D0A4553432F713A097175690D
:10064000740A313A0964656C6179282A31306D7316
:10065000290A323A09696E74657276616C286D7385
:10066000290A333A096D61785F73706565640A34ED
:100670003A0974696D655F746F5F6D61780A353A28
:1006800009776865656C5F6D61785F737065656437
:100690000A363A09776865656C5F74696D655F74E1
:1006A0006F5F6D61780A0A703A097072696E742022
:1006B00076616C7565730A643A09736574206465C4
:1006C0006661756C74730A75703A092B310A646F30
:1006D000776E3A092D310A706775703A092B3130FF
:1006E0000A7067646F776E3A092D31300A0A7370A9
:1006F000656564203D2064656C7461202A206D610D
:10070000785F7370656564202A2028726570656162
:1007100074202F2074696D655F746F5F6D61782937
:100720000A003F004D3E2000433E20004C25640A55
:10073000000A092D20436F6E736F6C65202D0A45EA
:1007400053432F713A09717569740A6D3A096D6FD7
:100750007573656B65790A000A092D204D6167691B
:1007600063202D0A643A0964656275670A783A095C
:100770006465627567206D61747269780A6B3A0905
:100780006465627567206B6579626F6172640A6D7A
:100790003A096465627567206D6F7573650A763A0C
:1007A0000976657273696F6E0A733A0973746174BE
:1007B00075730A633A09636F6E736F6C65206D6FB2
:1007C00064650A302D343A096C61796572302D34D4
:1007D000284631302D4634290A506175733A096232
:1007E0006F6F746C6F616465720A6E3A094E4B529A
:1007F0004F0A003F004E4B524F3A206F66660A0088
:100800004E4B524F3A206F6E0A0074696D65725FED
:1008100072656164333228293A202530346C580AD5
:10082000006B6579626F6172645F6E6B726F3A2004
:1008300025580A006B6579626F6172645F69646C48
:10084000653A2025580A006B6579626F6172645FB2
:1008500070726F746F636F6C3A2025580A00686F6E
:1008600073745F6B6579626F6172645F6C656473EA
:1008700028293A2025580A000A092D20537461744A
:100880007573202D0A004743433A20342E382E3109
:10089000204156522D4C4942433A20312E382E30B9
:1008A00073766E204156525F415243483A2061763A
:1008B00072350A004F5054494F4E533A204C55461A
:1008C00041204D4F5553454B4559204558545241B1
:1008D0004B455920434F4E534F4C4520434F4D4DB0
:1008E000414E44204E4B524F204B45594D41505F95
:1008F00053454354494F4E20343039360A0042554F
:10090000494C443A20756E6B6E6F776E20283131FA
:100910003A31333A3132204A756C2031342032304A
:100920003137290A005649443A2030784645454433
:1009300028742E6D2E6B2E29205049443A20307891
:10094000434146452848484B42206D6F6429205654
:1009500045523A203078303130340A004445534310
:100960003A20742E6D2E6B2E206B6579626F61724A
:1009700064206669726D7761726520666F722048C7
:10098000484B42206D6F640A000A092D205665729B
:1009900073696F6E202D0A000A6D6F7573653A20BA
:1009A0006F66660A000A6D6F7573653A206F6E0A8E
:1009B000000A6B6579626F6172643A206F66660A3D
:1009C000000A6B6579626F6172643A206F6E0A008B
:1009D0000A6D61747269783A206F66660A000A6D62
:1009E00061747269783A206F6E0A000A64656275F4
:1009F000673A206F6E0A000A64656275673A206F75
:100A000066660A000A0A626F6F746C6F61646572D1
:100A10002E2E2E2000433E20000011241FBECFEFBB
:100A2000DAE0DEBFCDBF04B603FE24C080910A0227
:100A300090910B02A0910C02B0910D028730904B67
:100A4000A740B04BB9F410920A0210920B02109218
:100A50000C0210920D0214BE84B7877F84BF88E118
:100A60000FB6F89480936000109260000FBEE0E033
:100A7000F8E3099511E0A0E0B1E0EEE6F9E402C088
:100A800005900D92A833B107D9F722E0A8E3B1E0B1
:100A900001C01D92AA30B207E1F70E948E090C94A2
:100AA000B5240C940000FF93EF93E0913801F0918E
:100AB0003901309709F00995EF91FF910895FC01F4
:100AC0008591803011F0EFDFFBCF0895FF27E0E242
:100AD00030E247FF0CC0419597FF09C0EDE26095F9
:100AE000709580959095611D711D811D911D27FF49
:100AF00002C0219530E350E2AA27660F771F881FB6
:100B0000991FAA1FA41710F0A41B63955A95A9F763
:100B1000AA3008F0A95FA05DAF93F3956115710548
:100B20008105910541F7ED3211F4EF93F395F2173A
:100B300018F43F93F395FBCF8F91B5DFFA95E1F76A
:100B40000895E991F9918591803021F0853219F06D
:100B5000AADFF9CF089520E0E89455915532C1F30A
:100B6000503311F4689455915A3348F4505390F32C
:100B7000220F022E220F220F200D250FF4CF0EF48C
:100B8000219589919991533619F3533729F15335AA
:100B900059F1BC0188279927E8945C3621F48991A2
:100BA000999168945591543639F446EF7EF077FF69
:100BB0000DC08FEF9FEF0AC055374AE039F0583526
:100BC00040E121F0523642E009F00895FF93EF939F
:100BD0007DDFEF91FF91B7CFFF93EF93FC01819100
:100BE0008030B9F360DFFBCFFF93EF9368DFF1CF85
:100BF000DF93CF93CDB7DEB72596A3DFCF91DF91FB
:100C000008958FEF84B980E485B957985F9A87B1CA
:100C10008F7387B988B1806C88B92E9A2F98E2E4D7
:100C2000F1E0119281E0EA34F807D9F7EAE3F1E064
:100C3000119281E0E234F807D9F782E491E09093D1
:100C40004D0180934C018AE391E090934B01809396
:100C50004A0108950F931F93CF93DF9380914A0128
:100C600090914B0120914C0130914D0130934B01FB
:100C700020934A0190934D0180934C01C0E0D0E055
:100C800001E010E080E090E045B1407C4C2B9C01FD
:100C900053E0220F331F5A95E1F7422B45B9EAE1A1
:100CA000EA95F1F700C0E0914A01F0914B01EC0F99
:100CB000FD1F208130E0082E02C0359527950A944B
:100CC000E2F720FD2F9AF5E3FA95F1F70000A6B5BB
:100CD0002E982AE12A95F1F700C020914C0130911D
:100CE0004D014F9B0EC0A801082E01C0440F0A946D
:100CF000EAF74095F901EC0FFD1F50815423508312
:100D00000CC0F901EC0FFD1F6081A801082E01C085
:100D1000440F0A94EAF7642B608346B56A2F70E0AB
:100D20004A1718F046B550E004C046B550E04150AF
:100D30005F4F461B570B4630510558F0E0914A0172
:100D4000F0914B01EC0FFD1F4081F901EC0FFD1FED
:100D50004083EAE1EA95F1F700C02F982E9AEBE282
:100D6000F1E03197F1F700C000000196883091055D
:100D700009F08ACFA0914C01B0914D01AC0FBD1F7D
:100D8000E0914A01F0914B01EC0FFD1F9C91808195
:100D9000981751F00E94E61B60934E0170934F012B
:100DA00080935001909351012196C830D10509F0EC
:100DB00069CF80910102853021F08091010281117B
:100DC00011C060914E0170914F018091500190913E
:100DD00051010E941B1C613177428105910510F081
:100DE0000E94691B81E0DF91CF911F910F910895BF
:100DF000E0914C01F0914D01E80FF11D80810895C3
:100E000008950895569A81FF02C05E9A08955E98EB
:100E100008958091760108959FB7F8941092550136
:100E20009FBF90910102943009F058C09091E90061
:100E30009F702091EC0020FF02C020E801C020E05C
:100E4000292B94E09093E9009091EB0090FF43C030
:100E50009091EE0097FF3FC090915201992321F0AD
:100E60009091E80095FF37C01092520196E03091C2
:100E7000E80035FD15C030910102343061F5309144
:100E8000EB0035FD28C0915021F481E080935201A0
:100E900022C0EFE9FFE03197F1F700C00000E7CF93
:100EA0008093F1008091E80085FD0AC08091E80000
:100EB00080FFFCCF8091E8008E778093E80006C029
:100EC0008FB7F89491E0909355018FBF2F702093C6
:100ED000E90080E008952F702093E9008FEF0895D6
:100EE000CF93DF9300D01F92CDB7DEB720910102E0
:100EF000243019F523E029839B838A832093E9001A
:100F00008FEF9091E800815095FD06C095ED9A9580
:100F1000F1F700008111F5CF8091E80085FF0DC049
:100F200040E050E063E070E0CE0101960E944E0A7E
:100F30008091E8008E778093E8000F900F900F90DB
:100F4000DF91CF910895CF93DF9300D01F92CDB75B
:100F5000DEB720910102243021F522E029839B8312
:100F60008A8383E08093E9008FEF9091E8008150BD
:100F700095FD06C095ED9A95F1F700008111F5CF2A
:100F80008091E80085FF0DC040E050E063E070E034
:100F9000CE0101960E944E0A8091E8008E778093E0
:100FA000E8000F900F900F90DF91CF91089520915E
:100FB00001022430F1F422E02093E9002FEF309178
:100FC000E800215035FD06C035ED3A95F1F70000F7
:100FD0002111F5CF2091E80025FF0BC040E050E043
:100FE00065E070E00E944E0A8091E8008E77809361
:100FF000E8000895CF93DF93EC01809101028430E3
:1010000009F047C080910A018823E1F080910B012B
:101010008823C1F085E08093E9008FEF9091E8008C
:10102000815095FD06C095E19A95F1F70000811178
:10103000F5CF8091E80085FF2CC040E050E060E2F1
:1010400070E017C081E08093E9008FEF9091E80095
:10105000815095FD06C095ED9A95F1F7000081113C
:10106000F5CF8091E80085FF14C040E050E068E0D3
:1010700070E0CE010E944E0A8091E8008E77809346
:10108000E80080E2FE01A6E5B1E001900D928A95AC
:10109000E1F7DF91CF9108958EE491E00E945F0522
:1010A00080910002811109C00E94E00B0E943D0C5A
:1010B0008091E20084608093E20008958AE491E0E8
:1010C0000E945F05109200020895089580915301D7
:1010D0008F5F8093530162E30E947B24911135C09E
:1010E0001092530180915501882379F1809101027A
:1010F000843049F58091E9008F709091EC0090FF69
:1011000002C090E801C090E0982B84E08093E90051
:101110008091EB0080FF14C08091EE0087FF10C02B
:101120008091E80085FF03C01092F100F9CF809113
:10113000E80080FF05C08091E8008E778093E8008A
:101140009F709093E90010925501089542E061EC80
:1011500081E00E945A0B42E061EC82E00E945A0B4F
:1011600042E061EC83E00E945A0B42E261EC84E0D1
:101170000E945A0B42E261EC85E00C945A0B80917C
:101180000302833009F455C030F4813071F08230AD
:1011900009F48EC008958A3009F47AC08B3009F4BE
:1011A00060C0893009F09CC020C080910202813A61
:1011B00009F096C08091E800877F8093E8008091D5
:1011C000060290910702892B21F060E080E090E018
:1011D00003C060E286E591E070E00E94970A80918A
:1011E000E8008B778093E8000895809102028132B5
:1011F00009F076C08091060290910702009719F0DD
:10120000049709F06DC08091E800877F8093E80023
:101210008091E80082FD05C0809101028111F8CF24
:101220005FC08091F100809376018091E8008B7718
:1012300053C080910202813A09F052C080910602A7
:1012400090910702892B09F04BC08091E800877FBD
:101250008093E8008091E80080FFFCCF80910A0134
:1012600036C0809102028132D9F5809106029091B8
:101270000702892BA9F58091E800877F8093E80019
:101280000E948F0B8091040280930A010C94B01489
:1012900080910202813221F58091E800877F80935E
:1012A000E8000E948F0B80910502809377010895DA
:1012B00080910202813AA1F48091E800877F8093B7
:1012C000E8008091E80080FFFCCF80917701809357
:1012D000F1008091E8008E778093E8000C948F0BEA
:1012E0000895089508958091760180935401109295
:1012F000760180E00E9402070E9439100C94B0141D
:101300000C9473090E94691B8091FF01882329F0C6
:101310000E948F1B81110C94380A089584B7877F2F
:1013200084BF88E10FB6F89480936000109260004B
:101330000FBE90E080E80FB6F89480936100909320
:1013400061000FBE8CE097E00E943E1B82E491E0BA
:101350000E945F050E9471090E94740F0E94E00BB9
:101360000E943D0C8091E20084608093E2007894BA
:10137000809101028430E1F781E391E00E945F05F2
:101380000E94760F80E091E00E94B70E80E291E02B
:101390000E945F050E94720980910102853019F454
:1013A0000E948209F9CF0E947A0FF6CF0E94A41BF7
:1013B000809154018093760108950C94D609292FC9
:1013C000332723303105A9F06CF42130310509F4BD
:1013D00042C02230310509F043C08DE890E02AE791
:1013E00031E042C021323105C9F02232310519F114
:1013F00037C099278130910541F08230910541F045
:10140000892B71F5E6E7F1E005C0E6E6F1E002C000
:10141000E2E5F1E0849190E09F0126C0653000F59F
:10142000E62FF0E0EE0FFF1FED5DFE4F20813181D2
:1014300089E090E019C0653098F4E62FF0E0DF0114
:10144000AA0FBB1FA75EBE4F2D913C91EC5EFE4FD5
:10145000808190E009C082E190E027E032E004C0A2
:1014600080E090E020E030E0FA01318320830895AD
:1014700080E189BD82E189BD09B400FEFDCF809184
:10148000D8008F7D8093D8008091E00082608093A7
:10149000E0008091E00081FDFCCF0895CF92DF92C3
:1014A000EF92FF920F931F93CF93DF937C018B01F9
:1014B000EA010E94B00B811131C0209731F0888180
:1014C0009981081B190BE80EF91EC12CD12C0115AE
:1014D000110519F18091E80085FD14C08091E800A4
:1014E0008E778093E800209741F0888199818C0D58
:1014F0009D1D9983888385E011C00E94B00B8823CD
:1015000031F30CC0F70181917F018093F10001500C
:101510001109FFEFCF1ADF0ADACF80E0DF91CF9118
:101520001F910F91FF90EF90DF90CF900895209141
:101530000802309109022617370748F06115710536
:1015400039F42091E8002E772093E80001C0B9011A
:10155000FC0120E061157105B9F180910102882339
:1015600009F440C0853009F43FC08091E80083FD54
:101570003DC08091E80082FF06C08091E80082FFB4
:1015800026C080E008958091E80080FFE3CF20919D
:10159000F3008091F20090E0922B6115710551F0FB
:1015A0008830910538F421912093F1006150710940
:1015B0000196F3CF21E0089709F020E08091E80040
:1015C0008E778093E800C6CF2111C7CFD6CF809108
:1015D0000102882339F0853039F08091E80083FFDB
:1015E000CCCF04C082E0089583E0089581E008959F
:1015F00020910802309109022617370748F061153B
:10160000710539F42091E8002E772093E80001C09D
:10161000B901FC0120E061157105C1F18091010261
:10162000882309F441C0853009F440C08091E80066
:1016300083FD3EC08091E80082FF06C08091E800F3
:1016400082FF27C080E008958091E80080FFE3CF0B
:101650002091F3008091F20090E0922B61157105CA
:1016600059F08830910540F424912093F10031968F
:10167000615071090196F2CF21E0089709F020E04E
:101680008091E8008E778093E800C5CF2111C6CF06
:10169000D5CF80910102882339F0853039F08091CF
:1016A000E80083FFCBCF04C082E0089583E0089573
:1016B00081E00895982F973058F59093E900981796
:1016C00039F07091EC002091ED005091F00003C0D2
:1016D000242F762F50E021FF19C03091EB003E7F80
:1016E0003093EB003091ED003D7F3093ED00309171
:1016F000EB0031603093EB007093EC002093ED0031
:101700005093F0002091EE0027FF07C09F5FD3CFDA
:101710008F708093E90081E0089580E008958091C2
:10172000020287FD05C08091E80080FF0EC012C054
:101730008091E80082FD05C0809101028111F8CFFF
:1017400008958091E8008B7708C080910102811193
:10175000EACF08958091E8008E778093E80008959D
:101760008091E4009091E50045E62091EC0020FF97
:1017700021C02091E80020FD21C0209101022223F8
:1017800089F0253089F02091EB0025FD0FC02091D4
:10179000E4003091E5002817390739F3415041F052
:1017A000C901E3CF82E0089583E0089581E00895C0
:1017B00084E008952091E80022FFDFCF80E00895C3
:1017C0000E944E0C0E94560CE0EEF0E08081816099
:1017D0008083E8EDF0E080818F77808319BCA7EDEE
:1017E000B0E08C918E7F8C9380818F7E808310926D
:1017F000000208950F931F93CF93DF930E944E0C26
:101800000E94560CC8EDD0E088818F77888388814C
:101810008068888388818F7D888319BC109201023B
:101820001092FD011092FF011092FE0100EE10E0F7
:10183000F80180818B7F808388818160888342E08A
:1018400060E080E00E945A0BE1EEF0E080818E7F44
:101850008083E2EEF0E08081816080838081886017
:101860008083F80180818E7F808388818061888376
:10187000DF91CF911F910F910895E8EDF0E0808105
:101880008F7E8083E7EDF0E080818160808384E05B
:1018900082BF81E0809300020C94FA0BE8EDF0E047
:1018A00080818E7F80831092E20008951092DA008A
:1018B0001092E10008951F920F920FB60F9211241B
:1018C0002F933F934F935F936F937F938F939F9348
:1018D000AF93BF93EF93FF938091E10082FF0BC022
:1018E0008091E20082FF07C08091E1008B7F8093AE
:1018F000E1000E9466088091DA0080FF1FC080919D
:10190000D80080FF1BC08091DA008E7F8093DA00C0
:101910008091D90080FF0DC080E189BD82E189BD41
:1019200009B400FEFDCF81E0809301020E944C08C3
:1019300005C019BC109201020E945E088091E1006E
:1019400080FF19C08091E20080FF15C08091E20005
:101950008E7F8093E2008091E20080618093E200BC
:101960008091D80080628093D80019BC85E0809374
:1019700001020E9480098091E10084FF30C08091C3
:10198000E20084FF2CC080E189BD82E189BD09B4F9
:1019900000FEFDCF8091D8008F7D8093D80080918C
:1019A000E1008F7E8093E1008091E2008F7E809342
:1019B000E2008091E20081608093E2008091FD016D
:1019C000882311F084E007C08091E30087FF02C004
:1019D00083E001C081E0809301020E94DD098091D3
:1019E000E10083FF29C08091E20083FF25C0809140
:1019F000E100877F8093E10082E0809301021092F2
:101A0000FD018091E1008E7F8093E1008091E200F2
:101A10008E7F8093E2008091E20080618093E200FB
:101A200042E060E080E00E945A0B8091F000886004
:101A30008093F0000E946508FF91EF91BF91AF91F4
:101A40009F918F917F916F915F914F913F912F91D6
:101A50000F900FBE0F901F9018951F920F920FB608
:101A60000F9211242F933F934F935F936F937F9324
:101A70008F939F93AF93BF93CF93EF93FF93C091B7
:101A8000E900CF708091EC001092E9008091F000A5
:101A9000877F8093F00078940E94690D1092E9008E
:101AA0008091F00088608093F000C093E900FF917E
:101AB000EF91CF91BF91AF919F918F917F916F9156
:101AC0005F914F913F912F910F900FBE0F901F90FC
:101AD00018951F93CF93DF93CDB7DEB7AA970FB6B4
:101AE000F894DEBF0FBECDBFE2E0F2E08091F100DE
:101AF000819322E0EA30F207C9F70E94BF08809183
:101B0000E80083FF1CC12091020230910302832F61
:101B100090E08A30910508F012C1FC01EA5AFF4FAB
:101B20000C949B24203881F0223809F008C1809160
:101B300006028F708093E9008091EB0085FB882777
:101B400080F91092E90006C08091FE019091FF019A
:101B5000911182609091E800977F9093E8008093C4
:101B6000F1001092F100C5C0822F8D7F09F0E7C00F
:101B7000222319F0223061F0E2C08091040281300A
:101B800009F0DDC0333009F080E08093FF0128C008
:101B900080910402811124C0209106022F7009F463
:101BA000CEC02093E9008091EB0080FF19C08091A6
:101BB000EB00333011F4806211C080618093EB0040
:101BC00081E090E0022E01C0880F0A94EAF780932A
:101BD000EA001092EA008091EB0088608093EB00AD
:101BE0001092E9008091E800877F86C02111A7C08C
:101BF000109104021F778091E3008078812B8093FD
:101C0000E3008091E800877F8093E8000E948F0BBB
:101C10008091E80080FFFCCF8091E3008068809392
:101C2000E300112311F083E001C082E08093010200
:101C300086C02058223008F082C080910402909122
:101C400005028C3D23E0920779F583E08A838AE2DE
:101C500089834FB7F894DE01139620E03EE051E20D
:101C6000E32FF0E050935700E49120FF03C0E2958A
:101C7000EF703F5FEF708E2F90E0EA3010F0C79664
:101C800001C0C0968D939D932F5F243149F74FBFBC
:101C90008091E800877F8093E8006AE270E0CE01DF
:101CA00001960E94970A14C0AE014F5F5F4F60918A
:101CB00006020E94DF09009709F441C02091E80064
:101CC000277F2093E800BC0189819A810E94F80A4D
:101CD0008091E8008B778093E80031C0203879F557
:101CE0008091E800877F8093E8008091FD018093D8
:101CF000F1008091E8008E778093E8000E948F0BBE
:101D00001EC021111CC0909104029230C0F4809139
:101D1000E800877F8093E8009093FD010E948F0B7D
:101D20008091FD01811104C08091E30087FF02C012
:101D300084E001C081E0809301020E94A6088091A6
:101D4000E80083FF0AC08091E800877F8093E80065
:101D50008091EB0080628093EB00AA960FB6F89416
:101D6000DEBF0FBECDBFDF91CF911F91089590933D
:101D70007D0180937C010895E0917C01F0917D01CB
:101D8000309721F00190F081E02D099480E00895D2
:101D9000FF920F931F93CF93DF938C01E0917C010F
:101DA000F0917D01309799F10280F381E02D099542
:101DB0008091EC0182FF2BC080FF04C08DE593E091
:101DC0000E945F05E80180E2F82E07E513E08091AC
:101DD000EC0180FF0BC088811F928F931F930F939C
:101DE0000E94F8050F900F900F900F90FA94219693
:101DF000F110EDCF8091EC0180FF09C085E593E003
:101E0000DF91CF911F910F91FF900C945F05DF91AF
:101E1000CF911F910F91FF900895E0917C01F09177
:101E20007D01309721F00480F581E02D099408951B
:101E3000CF93DF93EC0180917A0190917B01C817D9
:101E4000D90709F1D0937B01C0937A01E0917C011D
:101E5000F0917D013097B9F00680F781E02DCE0139
:101E600009958091EC0182FF0EC080FF0CC0DF93CA
:101E7000CF9387E493E09F938F930E94F8050F9090
:101E80000F900F900F90DF91CF910895CF93DF9334
:101E9000EC018091780190917901C817D90709F177
:101EA000D0937901C0937801E0917C01F0917D019C
:101EB0003097B9F00084F185E02DCE01099580912D
:101EC000EC0182FF0EC080FF0CC0DF93CF9387E34D
:101ED00093E09F938F930E94F8050F900F900F90BF
:101EE0000F90DF91CF9108950C943A100E94D11B6E
:101EF0000C940106CF92DF92EF92FF920F931F9303
:101F0000CF93DF9300D000D000D0CDB7DEB70E94D2
:101F10002A063FE7E32E31E0F32E00E010E0C02E6A
:101F2000802F0E94F806F701D1907F01D826B1F4E6
:101F30000F5F1F4F0830110591F78FEF89838A8358
:101F40001B820E94DA1B8160782F9D838C834981DC
:101F50005A816B818D810E946F1048C09091EC0175
:101F600091FF04C08E830E943B108E8120E030E000
:101F70004D2D50E0922FBA01022E02C07595679543
:101F80000A94E2F760FF2CC02983CA82EE24E3940E
:101F9000F12C02C0EE0CFF1C9A95E2F790E08E2126
:101FA0009F2121E0892B09F420E02B830E94DA1B7A
:101FB0008160782F9D838C8349815A816B818D81CB
:101FC0000E946F1049815A816B817C818D810E94B2
:101FD000561BF801E158FE4F80818E25808306C094
:101FE0002F5F3F4F2830310529F6A2CF0E94551BA5
:101FF0000E94C61E10917E010E94BC0E181741F16E
:102000000E94BC0E80937E019091EC0192FF0EC065
:1020100090FF0CC01F928F9388E693E09F938F935D
:102020000E94F8050F900F900F900F9080917E0105
:1020300026960FB6F894DEBF0FBECDBFDF91CF91CD
:102040001F910F91FF90EF90DF90CF900C94671B42
:1020500026960FB6F894DEBF0FBECDBFDF91CF91AD
:102060001F910F91FF90EF90DF90CF9008950C9407
:10207000020708950895EF92FF920F931F93CF9355
:10208000DF9381E893E00E945F05C0E0D0E08DE23D
:10209000E82E81E0F82E03E713E08C2F0E94F8066B
:1020A0000E94431BFF92EF921F928F93DF93CF9377
:1020B0001F930F930E94F80521968DB79EB708963F
:1020C0000FB6F8949EBF0FBE8DBFC830D10529F75B
:1020D000DF91CF911F910F91FF90EF900895CF93D3
:1020E000DF93CDB7DEB72B970FB6F894DEBF0FBEE8
:1020F000CDBF4F83588769877A878B878A859B8571
:10210000892B31F05F3F11F080E003C04F3FE1F7D2
:1021100081E0811107C04F81588569857A858B855B
:102120000E94561BDE01119686E0FD0111928A95F0
:10213000E9F785E0FE01379601900D928A95E1F767
:1021400049815A816B817C818D819E810E947C179F
:102150002B960FB6F894DEBF0FBECDBFDF91CF91A7
:102160000895CF93C82F882309F4A3C08CEF8C0F58
:10217000813A48F48C2F0E94072281119AC08C2F3B
:102180000E94F9190CC080E28C0F883058F4C77097
:1021900081E001C0880FCA95EAF70E949F1ACF918B
:1021A0000C94E51A8BE58C0F833078F4C53A29F04E
:1021B000C63A31F482E890E005C081E890E002C0C0
:1021C00083E890E0CF910C94180F88E58C0F85314F
:1021D00008F06FC0C83A61F1C93A69F1CA3A71F1C1
:1021E000CB3A79F1CC3A81F1CD3A89F1CE3A91F1FD
:1021F000CF3A99F1C13BA1F1C03BA9F1C23BB1F18A
:10220000C33BB9F1C43BC1F1C53BC9F1C63BD1F1F8
:10221000C73BD9F1C83BE1F1C93BE9F1CA3BF1F158
:10222000CB3BF9F1CC3B09F03FC08AE292E03EC0E3
:1022300082EE90E03BC089EE90E038C08AEE90E0FC
:1022400035C085EB90E032C086EB90E02FC083EB89
:1022500090E02CC084EB90E029C087EB90E026C092
:102260008CEC90E023C08DEC90E020C083E891E0FE
:102270001DC08AE891E01AC082E991E017C084E9A4
:1022800091E014C081E292E011C083E292E00EC0BE
:1022900084E292E00BC085E292E008C086E292E020
:1022A00005C087E292E002C080E090E0CF910C94FC
:1022B000460FCF910895882329F19CEF980F913A0A
:1022C00018F40E944A1A0DC090E2980F983058F402
:1022D000877091E001C0990F8A95EAF7892F0E94D3
:1022E000A51A0C94E51A9BE5980F933020F480E032
:1022F00090E00C94180F885A853120F480E090E02B
:102300000C94460F0895882321F00E949F1A0C9484
:10231000E51A0895882321F00E94A51A0C94E51A65
:102320000895CF92DF92EF92FF920F931F93CF9376
:10233000DF93CDB7DEB728970FB6F894DEBF0FBE98
:10234000CDBF8C0185E0F801DE01119601900D9260
:102350008A95E1F7F80140813181F280258122954B
:102360002F7083819481892B31F03F3F31F481E0DC
:102370004F3F19F403C081E001C080E080FDCFC26F
:1023800049833A8389819A812F830E94B7199E835A
:1023900088870E94B6190E94DE184E81E42FE295CC
:1023A000EF70F0E0E05AFF4F2F8168850C949B247A
:1023B000842F807F142F1F70882311F01295107FB7
:1023C000FF2059F0112309F45FC2812F68870E9412
:1023D000B21A0E94E51A688557C2862F0E945B11C7
:1023E000112309F49CC2812F0E94B81A28960FB6B7
:1023F000F894DEBF0FBECDBFDF91CF911F910F913B
:10240000FF90EF90DF90CF900C94E51A842F807F9F
:10241000942F9F70E92E803219F0E29480EFE82229
:10242000662319F0613001F129C0FF20A9F08E2D3B
:10243000222349F1213039F528960FB6F894DEBFF2
:102440000FBECDBFDF91CF911F910F91FF90EF9005
:10245000DF90CF900C94C21A222319F0213009F496
:102460005EC20E94CB1A2CC0FF20E9F0263008F093
:1024700056C20E949C1A8E2129F022C0FF20F1F042
:10248000211115C08E2D28960FB6F894DEBF0FBE11
:10249000CDBFDF91CF911F910F91FF90EF90DF9013
:1024A000CF900C948311253008F039C209C0F8018F
:1024B000858180FFE9C18F708583E4CF2111F8C148
:1024C0008E2D66C1242F26952695237030E0211588
:1024D000310521F021303105C9F021C2FF2021F062
:1024E000862F942F937002C080E090E028960FB65C
:1024F000F894DEBF0FBECDBFDF91CF911F910F913A
:10250000FF90EF90DF90CF900C94180FFF2021F0F8
:10251000862F942F937002C080E090E028960FB62B
:10252000F894DEBF0FBECDBFDF91CF911F910F9109
:10253000FF90EF90DF90CF900C94460F862FFF20F6
:1025400019F00E944C1D02C00E94B41D28960FB6BF
:10255000F894DEBF0FBECDBFDF91CF911F910F91D9
:10256000FF90EF90DF90CF900C94391E842F8370F2
:1025700009F076C0F110D3C1262F22952695277039
:10258000220F220F862F8F70C82ED12CE12CF12C18
:10259000022E04C0CC0CDD1CEE1CFF1C0A94D2F7EA
:1025A00064FF10C06FE070E080E090E004C0660F50
:1025B000771F881F991F2A95D2F76095709580958F
:1025C000909503C060E070E0CB01242F26952695FE
:1025D0002370422F50E042305105D1F04330510575
:1025E00059F16C297D298E299F294130510541F1EE
:1025F00028960FB6F894DEBF0FBECDBFDF91CF9106
:102600001F910F91FF90EF90DF90CF900C94F318F3
:102610006C297D298E299F2928960FB6F894DEBF54
:102620000FBECDBFDF91CF911F910F91FF90EF9023
:10263000DF90CF900C9405190E94F318C701B601E2
:1026400028960FB6F894DEBF0FBECDBFDF91CF91B5
:102650001F910F91FF90EF90DF90CF900C94E118B5
:10266000FF2019F0842F817001C08695882309F41A
:1026700056C1262F229526952770220F220F862FCE
:102680008F70C82ED12CE12CF12C022E04C0CC0C62
:10269000DD1CEE1CFF1C0A94D2F764FF10C06FE033
:1026A00070E080E090E004C0660F771F881F991FDC
:1026B0002A95D2F7609570958095909503C060E05B
:1026C00070E0CB01242F269526952370422F50E0F1
:1026D00042305105D1F04330510559F16C297D2923
:1026E0008E299F294130510541F128960FB6F89463
:1026F000DEBF0FBECDBFDF91CF911F910F91FF9035
:10270000EF90DF90CF900C9492196C297D298E293F
:102710009F2928960FB6F894DEBF0FBECDBFDF917C
:10272000CF911F910F91FF90EF90DF90CF900C947D
:10273000A4190E949219C701B60128960FB6F89401
:10274000DEBF0FBECDBFDF91CF911F910F91FF90E4
:10275000EF90DF90CF900C948019603F49F118F40E
:10276000603E48F48CC0623F09F451C0E0F1633F21
:1027700009F461C084C0162F1F70842F8F71FF2051
:1027800021F00E942B19812F7ECE0E944619812FA5
:1027900028960FB6F894DEBF0FBECDBFDF91CF9164
:1027A0001F910F91FF90EF90DF90CF900C948A11C2
:1027B000FF20A9F0253008F0B2C0842F8F71289631
:1027C0000FB6F894DEBF0FBECDBFDF91CF911F9142
:1027D0000F91FF90EF90DF90CF900C946519263009
:1027E00008F09DC0EACFFF20A1F0842F8F712896BA
:1027F0000FB6F894DEBF0FBECDBFDF91CF911F9112
:102800000F91FF90EF90DF90CF900C942B19FF2049
:1028100061F3842F8F7128960FB6F894DEBF0FBE38
:10282000CDBFDF91CF911F910F91FF90EF90DF907F
:10283000CF900C944619FF2091F0842F8F71289629
:102840000FB6F894DEBF0FBECDBFDF91CF911F91C1
:102850000F91FF90EF90DF90CF900C941C19289669
:102860000FB6F894DEBF0FBECDBFDF91CF911F91A1
:102870000F91FF90EF90DF90CF900C941719FF20ED
:10288000A1F0222309F4B1CF862F28960FB6F89431
:10289000DEBF0FBECDBFDF91CF911F910F91FF9093
:1028A000EF90DF90CF900C94B110222309F4B1CFB8
:1028B000862F28960FB6F894DEBF0FBECDBFDF91EE
:1028C000CF911F910F91FF90EF90DF90CF900C94DC
:1028D0005B114F70C8010E94C71C28960FB6F89470
:1028E000DEBF0FBECDBFDF91CF911F910F91FF9043
:1028F000EF90DF90CF900C9429184F70C801289664
:102900000FB6F894DEBF0FBECDBFDF91CF911F9100
:102910000F91FF90EF90DF90CF900C94CA1C2896F7
:102920000FB6F894DEBF0FBECDBFDF91CF911F91E0
:102930000F91FF90EF90DF90CF9008950E94BF1A03
:102940000E948E1A0E94E51A0E94671F0E94391E7B
:1029500080E090E00E94180F80E090E00C94460F19
:102960000E94AF1A0C949E140E94B719292F229529
:102970002F7030E02C3031054CF42A3031056CF4E6
:10298000225031092230310590F407C02C30310536
:1029900051F02F30310539F00AC0803E10F0803FF1
:1029A00031F481E0089593FB882780F9089580E051
:1029B0000895CF93DF9300D000D01F92CDB7DEB73C
:1029C0000F900F900F900F900F90DF91CF9108957F
:1029D000CF93DF9300D000D000D0CDB7DEB72696DE
:1029E0000FB6F894DEBF0FBECDBFDF91CF91089533
:1029F0001F93CF93DF93C091870116E080918801E8
:102A0000C81799F0D0E01C9FF0011D9FF00D112414
:102A1000E757FE4F408151816281738184819581A6
:102A20000E94E8142196C770E9CFDF91CF911F91E2
:102A300008954091B9015091BA016091BB01709124
:102A4000BC018091BD019091BE010C94E814CF931C
:102A50008091BE0182958F7009F05FC08091BB01AB
:102A6000882309F45AC020918701A09188016091C0
:102A7000B9017091BA018091BC019091BD0131E022
:102A80006F3F09F030E0B32FC6E02A1709F445C0C4
:102A9000009721F07F3F21F44B2F03C041E001C09C
:102AA00040E030E040FD35C0C29FF001C39FF00D13
:102AB0001124E757FE4F418174132BC040816413EA
:102AC00028C04281411125C04381548148175907CC
:102AD00010F441505109481B590B4C325140C8F475
:102AE0008091BE018F7080618093BE0186E0829FDD
:102AF000F001839FF00D1124E257FE4F80818F700B
:102B00008061808389EB91E00E949111CF910C94B8
:102B1000F8142F5F3F4F2770B8CFCF910895CF9211
:102B2000DF92EF92FF920F931F93CF93DF93CDB776
:102B3000DEB762970FB6F894DEBF0FBECDBF8C0133
:102B400085E0F801DE011D9601900D928A95E1F76E
:102B5000D8014C9111965C91119712966C91129735
:102B60001396ED90FC9014977091B901E091BA0121
:102B70002091BC013091BD012115310531F0EF3FAD
:102B800031F481E07F3F19F403C081E001C080E0AF
:102B9000B82FB170CB2E80FD6DC1D090BB01DD2070
:102BA00009F4F6C0F091BE01E216F30638F0C70151
:102BB000821B930B8C32914048F09CC0209530953D
:102BC0002E0D3F1D2C32314008F094C08F2F807F96
:102BD00009F053C0E51315C0741313C0D62E61114C
:102BE00010C0FF70F061F093BE010E94191589EBCF
:102BF00091E00E9491118091BE01D80115968C93AD
:102C00006BC1EF2831F05F3F31F481E04F3F19F4A1
:102C100003C081E001C080E080FD03C081E0862721
:102C200001C080E0B82FB170FB2E80FF1CC08091E6
:102C300087012091880136E0821709F428C190E0CD
:102C4000389FF001399FF00D1124E757FE4F718135
:102C5000571306C07081471303C07281671303C006
:102C600001968770E9CFD62E662309F435C180918D
:102C7000BE0181608093BE0153C0E51308C0741388
:102C800006C0611104C0D8011596FC93AEC04D87F3
:102C90005E878D859E856A8B0E94B4146A8988231D
:102CA00029F1D62E662311F12091BE01822F829543
:102CB0008F7090E002970CF460C08091B901909100
:102CC000BA0198878F831986FB86EA862C87CE0106
:102CD000079651C0E51731F14D875E878D859E853A
:102CE0006A8B0E94B4146A8981112EC0C8010E94A7
:102CF0009111A4C08F2F807F69F77E2DF98AE88A11
:102D000089890E94D91489EB91E00E949111E9EB25
:102D1000F1E086E0DF011D928A95E9F70E9419151E
:102D2000D12CDAC07413D8CF6111D6CFD801159643
:102D3000FC93C8010E949111E9EBF1E086E0DF010C
:102D40001D928A95E9F7C8C0D62E662379F22091A4
:102D5000BE01822F82958F7090E0029774F080916F
:102D6000B9019091BA019A8389831B82FD82EC821A
:102D70002E83CE0101960E94911186E0F801A9EB05
:102D8000B1E001900D928A95E1F70E9427156FC07E
:102D9000E216F30640F0C701821B930B9C012C3214
:102DA000314048F057C0209530952E0D3F1D2C32F4
:102DB000314008F04FC0D62E662309F497CFE513B3
:102DC00029C0741327C08091BE0180FD1AC0982FBE
:102DD00092959F70B1F0F80185839F3031F09F5F2D
:102DE0009295907F8F70892B8583C8010E949111E5
:102DF00086E0F801A9EBB1E001900D928A95E1F728
:102E000036C086E0F801A9EBB1E001900D928A95F9
:102E1000E1F762C04D875E878D859E850E94B41460
:102E2000882379F086E0F801A9EBB1E001900D92DA
:102E30008A95E1F70E9427150E941915DD24D39485
:102E40004BC08091BE0181608093BE01C8010E9489
:102E5000911142C07E2DF98AE88A89890E94D9148D
:102E6000E9EBF1E086E0DF011D928A95E9F70E9427
:102E7000191532C0662309F439CF4D875E878D85D9
:102E80009E850E94B414882309F430CFCBCF4D87A0
:102E90005E878D859E850E94B719292F22952F70F8
:102EA00030E0223031052CF49F7041F0811106C0D2
:102EB0000CC0243031052CF49F7049F4805E8830BA
:102EC00020F0C8010E949111CF2CDC2C05C0F80124
:102ED0009581907F99F7F9CF8D2D62960FB6F89472
:102EE000DEBF0FBECDBFDF91CF911F910F91FF903D
:102EF000EF90DF90CF9008951F93CF93DF93CDB7DE
:102F0000DEB72C970FB6F894DEBF0FBECDBF4F8350
:102F1000588769877A878B879C87CE0107960E949E
:102F20008F158823C1F02F8138858A859B85892B51
:102F300031F03F3F11F080E003C02F3FE1F781E027
:102F4000811147C04F81588569857A858B859C851D
:102F50000E94E8143EC086E0FE013796DE0111961D
:102F600001900D928A95E1F7FF81E8854A855B859E
:102F70004115510531F0EF3F31F481E0FF3F19F485
:102F800003C081E001C080E080FD23C02091880162
:102F900030E0C9010196877099276091870170E040
:102FA00086179707F1F1F983EA835D834C8396E0F6
:102FB000929FD001939FB00D1124A757BE4FFE01E1
:102FC000319601900D929A95E1F7809388010E94C5
:102FD000F81416E08091870190918801891779F1A2
:102FE000189FC001112487579E4F0E948F15882378
:102FF00031F1E09187011E9FF0011124E757FE4F48
:103000004081518162817381848195810E94E8149D
:103010008091870190E001968770992780938701BE
:10302000D9CF0E94B0141092880110928701E9EB69
:10303000F1E086E0DF011D928A95E9F7CACF2C9670
:103040000FB6F894DEBF0FBECDBFDF91CF911F91B9
:103050000895DF92EF92FF920F931F93CF93DF9328
:10306000FC01009709F48AC0E12CF12CDD24D394F3
:10307000EF0121968491853709F461C058F48437B3
:1030800008F04EC0843008F06AC08130D1F0823040
:1030900071F174C0883709F45DC050F4863709F4C3
:1030A00055C0873709F06AC08E2D0E94AC1A54C0F3
:1030B0009CE7980F903708F061C08F770E945B11F2
:1030C00050C08F010E5F1F4FFE01849190E2980F58
:1030D000983050F48770FD2D01C0FF0F8A95EAF7F4
:1030E0008F2F0E94B21A15C00E94B11014C08F0118
:1030F0000E5F1F4FFE01849190E2980F983068F4A4
:103100008770FD2D01C0FF0F8A95EAF78F2F0E946F
:10311000B81A0E94E51AE80124C00E945B11FBCF97
:103120009F012E5F3F4FFE01C491CC2369F08FE9D0
:103130009FE00197F1F700C00000C150F6CF9F015A
:103140002E5F3F4FFE01F490E9010BC00E949C1AD4
:10315000E82E07C00E94AF1A0E94E51A02C00E9422
:10316000B1109F2D992341F0EFE9FFE03197F1F77E
:1031700000C000009150F6CFFE017ACFDF91CF91D1
:103180001F910F91FF90EF90DF9008956093C3011E
:103190007093C4018093C5019093C6010E94651B82
:1031A0000C949E146093BF017093C0018093C10181
:1031B0009093C2010E94661B0C949E1408950C9477
:1031C000C6180F931F930091C3011091C401209161
:1031D000C5013091C601602B712B822B932B1F915F
:1031E0000F910C94C6180F931F930091C301109177
:1031F000C4012091C5013091C6016023712382234F
:1032000093231F910F910C94C6180F931F93009155
:10321000C3011091C4012091C5013091C6016027FE
:103220007127822793271F910F910C94C61860E095
:1032300070E0CB010C94D21841E050E060E070E007
:1032400004C0440F551F661F771F8A95D2F7CB0124
:10325000BA010C94D21841E050E060E070E004C084
:10326000440F551F661F771F8A95D2F78091BF01C3
:103270009091C001A091C101B091C201482B592B7E
:103280006A2B7B2BCB01BA010C94D21841E050E0A1
:1032900060E070E004C0440F551F661F771F8A95D9
:1032A000D2F740955095609570958091BF019091AF
:1032B000C001A091C101B091C201482359236A23E2
:1032C0007B23CB01BA010C94D21841E050E060E0BE
:1032D00070E004C0440F551F661F771F8A95D2F710
:1032E0008091BF019091C001A091C101B091C20134
:1032F000482759276A277B27CB01BA010C94D2189B
:103300000F931F930091BF011091C0012091C10143
:103310003091C201602B712B822B932B1F910F9147
:103320000C94D2180F931F930091BF011091C0010C
:103330002091C1013091C201602371238223932324
:103340001F910F910C94D2180F931F930091BF01FE
:103350001091C0012091C1013091C20160277127F5
:10336000822793271F910F910C94D2180895CF9222
:10337000DF92EF92FF920F931F93CF93DF93EC01B5
:10338000C090C301D090C401E090C501F090C60187
:103390008091BF019091C001A091C101B091C20183
:1033A000C82AD92AEA2AFB2A0FE110E0B701A601B0
:1033B000002E04C076956795579547950A94D2F7E5
:1033C00040FF07C0BE01802F0E949D1C81309105E7
:1033D00039F40150110950F7BE0180E00E949D1C94
:1033E000DF91CF911F910F91FF90EF90DF90CF90E1
:1033F000089590910A01992361F190910B0199230D
:1034000041F1982F9695969596959F3188F4E09185
:103410000C01F0910D01E90FF11D877021E030E002
:1034200001C0220F8A95EAF78181822B818308955A
:103430009091EC0190FF2DC01F928F938DEA93E045
:103440009F938F930E94F8050F900F900F900F900D
:10345000089540910C0150910D0120E030E09FEF64
:10346000FA01E20FF31F6281681799F09F3F19F488
:10347000611101C0922F2F5F3F4F2E31310581F72F
:103480009F3F39F0FA01E90FF11D97FDFA9582830C
:103490000895089590910A01992369F190910B0183
:1034A000992349F1982F9695969596959F3190F48A
:1034B000E0910C01F0910D01E90FF11D877021E001
:1034C00030E001C0220F8A95EAF7209581812823F8
:1034D000218308959091EC0190FF1FC01F928F935C
:1034E0008FE893E09F938F930E94F8050F900F90C1
:1034F0000F900F90089540910C0150910D0120E024
:1035000030E0FA01E20FF31F9281981301C012829A
:103510002F5F3F4F2E313105A1F7089581E090E0F4
:10352000E0910C01F0910D01E80FF91F1082019656
:1035300080329105A9F708958091EB01089590914B
:10354000EB01982B9093EB01089580959091EB01FE
:1035500098239093EB0108958093EB0108951092C6
:10356000EB0108959091EA01982B9093EA01089558
:1035700080959091EA0198239093EA010895109222
:10358000EA0108958093C9010E94DA1B9093C80153
:103590008093C70108951092C9011092C80110923A
:1035A000C701089540910C0150910D0120E030E0D9
:1035B00080E0FA01E20FF31F918191118F5F2F5F7D
:1035C0003F4F2F313105A9F70895E0910C01F0919B
:1035D0000D018091EB018083E0910C01F0910D01D0
:1035E00080819091EA01892B80838091C901882391
:1035F00009F43EC00E94DA1B2091C7013091C80136
:103600008217930760F00E94DA1B2091C701309166
:10361000C801821B930B8C32914070F41BC00E9436
:10362000DA1B2091C7013091C80120953095280FF1
:10363000391F2C32314070F08091EC0180FF08C0BE
:103640008BEC93E09F938F930E94F8050F900F905F
:103650000E94CB1AE0910C01F0910D0180819091B4
:10366000C901892B80830E94D21A81110E94CB1A32
:1036700080910C0190910D010C94C80E909339012A
:103680008093380108958295982F9C7C9695969505
:10369000837344E0849F90011124922B892F8A7AAE
:1036A00086959575990F892B08950895CF93DF938B
:1036B00000D000D01F92CDB7DEB70F900F900F90C3
:1036C0000F900F90DF91CF910895089508950C9475
:1036D000371080910102843009F11092ED0120E44D
:1036E00088E190E00FB6F894A895809360000FBE33
:1036F0002093600083B7817F846083BF83B781603C
:1037000083BF7894889583B78E7F83BF88E10FB697
:10371000F89480936000109260000FBE0895CF93DC
:103720000E9400070E942A060E940107C0E08C2F19
:103730000E94F806811105C0CF5FC830C1F780E054
:1037400001C081E0CF9108950E9439100C94B0140B
:103750001F920F920FB60F9211248F939F93AF93E6
:10376000BF938091ED01811113C08091EE01909182
:10377000EF01A091F001B091F1014196A11DB11DA1
:103780008093EE019093EF01A093F001B093F101CB
:10379000BF91AF919F918F910F900FBE0F901F908F
:1037A000189582E084BD93E095BD9AEF97BD809314
:1037B0006E0008952FB7F8948091EE019091EF017B
:1037C000A091F001B091F1012FBF08952FB7F894A7
:1037D0006091EE017091EF018091F0019091F10103
:1037E0002FBF0895CF92DF92EF92FF920F931F9316
:1037F0002FB7F8944091EE015091EF016091F001E4
:103800007091F1012FBF6A017B01EE24FF248C012E
:1038100020E030E0C016D106E206F30610F4415075
:103820005109481B590BCA011F910F91FF90EF904E
:10383000DF90CF900895CF92DF92EF92FF920F9397
:103840001F934FB7F8940091EE011091EF01209172
:10385000F0013091F1014FBF68017901C61AD70A12
:10386000E80AF90A061717072807390718F0C701E9
:10387000B60106C0C701B6016150710981099109FD
:103880001F910F91FF90EF90DF90CF9008951F92BE
:103890000F920FB60F9211248F939F93AF93BF9304
:1038A0008091EE019091EF01A091F001B091F101B2
:1038B0000196A11DB11D8093EE019093EF01A0939D
:1038C000F001B093F101BF91AF919F918F910F9053
:1038D0000FBE0F901F9018950E94E00BF8942FEFE9
:1038E00087EA91E6215080409040E1F700C0000057
:1038F00087E090EBDC0180930A0290930B02A09387
:103900000C02B0930D022CE088E190E00FB6F89421
:10391000A895809360000FBE20936000FFCF28E041
:10392000929FF0011124E80FF11DE052FF4F949196
:10393000892F8F7092959F700895CF93C82FCB01D8
:103940000E948F1C482F50E080E1989F9001112425
:10395000242B352B2038310519F480E090E015C078
:103960009770E92FF0E088E0C89FE00DF11D112469
:1039700084E0EE0FFF1F8A95E1F7E40FF51FEE0FCD
:10398000FF1FE050F84985919491CF91089580E010
:1039900090E0089508958091F40180FF0BC060913C
:1039A000110185E0689FB0011124759567957595A3
:1039B00067952AC081FF09C06091110185E0689F69
:1039C000B0011124759567951FC082FF07C06091F3
:1039D000110185E0689FB001112416C04091F501E6
:1039E0004423C9F060911001461788F72091110116
:1039F00085E0289F90011124429FC001439F900DB4
:103A0000112470E00E9487246038710540F461152C
:103A1000710539F002C065E070E0862F08958FE7E8
:103A2000089581E008958091F40180FF08C06091BD
:103A30000F0170E0759567957595679521C081FFB9
:103A400006C060910F0170E07595679519C082FFFF
:103A500004C060910F0170E010C08091F5018823CF
:103A6000C1F060910E018617A0F790910F01989F09
:103A7000C001112470E00E9487246038710528F489
:103A80006115710521F0862F08958FE7089581E073
:103A9000089561E070E0F4CF803F21F40E94CB1CD8
:103AA000819504C0813F29F40E94CB1C8093F801CA
:103AB0000895823F21F40E94CB1C819504C0833F6E
:103AC00029F40E94CB1C8093F7010895893F19F4D3
:103AD0000E94131D05C08A3F31F40E94131D819579
:103AE0008093F90108958B3F21F40E94131D819565
:103AF00004C08C3F29F40E94131D8093FA0108959D
:103B0000843F21F48091F601816017C0853F21F444
:103B10008091F601826011C0863F21F48091F60108
:103B200084600BC0873F21F48091F601886005C056
:103B3000883F31F48091F60180618093F601089509
:103B40008D3F21F48091F40181600BC08E3F21F400
:103B50008091F401826005C08F3F29F48091F401C7
:103B600084608093F4010895803F39F48091F801D6
:103B700087FF6CC01092F80169C0813F29F48091E1
:103B8000F8011816BCF362C09091F701823F29F446
:103B900097FF5CC01092F70159C0833F19F41916C2
:103BA000CCF354C0893F41F48091F90118160CF010
:103BB0004DC01092F9014AC08A3F29F48091F90161
:103BC00087FF44C0F6CF8B3F39F48091FA0187FF1D
:103BD0003DC01092FA013AC08C3F29F48091FA015D
:103BE0001816BCF333C0843F21F48091F6018E7F18
:103BF00017C0853F21F48091F6018D7F11C0863F6B
:103C000021F48091F6018B7F0BC0873F21F48091D6
:103C1000F601877F05C0883F31F48091F6018F7EE1
:103C20008093F60113C08D3F21F48091F4018E7FC3
:103C30000BC08E3F21F48091F4018D7F05C08F3F32
:103C400029F48091F4018B7F8093F4018091F70136
:103C500081110EC08091F80181110AC08091F90193
:103C6000811106C08091FA01811102C01092F50104
:103C700008958091EC0183FF7EC084E094E00E946F
:103C80005F058091F6011F928F938FEF93E09F93D2
:103C90008F930E94F8058DEF93E00E945F052091BD
:103CA000F701822F992787FD90959F932F938AEF95
:103CB00093E09F938F930E94F80588EF93E00E9412
:103CC0005F052091F801822F992787FD90959F939A
:103CD0002F9385EF93E09F938F930E94F80583EFD6
:103CE00093E00E945F052091F901822F992787FDBB
:103CF00090959F932F9380EF93E09F938F930E94D3
:103D0000F8058EEE93E00E945F052091FA01822F64
:103D1000992787FD90959F932F938BEE93E09F9328
:103D20008F930E94F80588EE93E00E945F058091D2
:103D3000F5011F928F9385EE93E09F938F930E94DE
:103D4000F80583EE93E00E945F058091F4011F92D5
:103D50008F9380EE93E09F938F930E94F8058DEDF3
:103D600093E00E945F058DB79EB74C960FB6F8940E
:103D70009EBF0FBE8DBF86EF91E00E940D0F0E9487
:103D8000DA1B9093F3018093F20108951F93CF9370
:103D9000DF938091F2019091F3010E94F21B409118
:103DA000F501442321F02091120130E006C020915A
:103DB00013015AE0259F900111248217930708F4FC
:103DC00082C08091F7011091F801D091F901C09162
:103DD000FA01811107C0111105C0D11103C0CC2314
:103DE00009F471C04F3F19F04F5F4093F501181669
:103DF00024F40E94CB1C8093F7018091F70187FF88
:103E000005C00E94CB1C81958093F701111624F404
:103E10000E94CB1C8093F8018091F80187FF05C0B8
:103E20000E94CB1C81958093F8016091F701662375
:103E300039F11091F801112319F1772767FD709579
:103E4000872F972F0E948C2323E333E343E35FE321
:103E50000E94F0230E9459236093F701612F772776
:103E600067FD7095872F972F0E948C2323E333E300
:103E700043E35FE30E94F0230E9459236093F8011B
:103E80001D1624F40E94131D8093F9018091F901FD
:103E900087FF05C00E94131D81958093F9011C16B0
:103EA00024F40E94131D8093FA018091FA0187FF88
:103EB00005C00E94131D81958093FA01DF91CF9177
:103EC0001F910C94391EDF91CF911F910895E6EF59
:103ED000F1E085E0DF011D928A95E9F71092F50186
:103EE0001092F401089587E296E00E945F051F9208
:103EF00081E08F931F9285E08F9389ED95E09F93EA
:103F00008F930E94F8050F900F900F900F900F90D5
:103F10000F9008958330E9F128F4813061F0823008
:103F200009F10895853009F462C008F449C086306B
:103F300009F474C0089520911301862F90E0820F38
:103F4000911D8F3F910520F4620F6093130103C010
:103F50008FEF80931301809113011F928F9382E161
:103F600095E072C020911201862F90E0820F911D82
:103F70008F3F910520F4620F6093120103C08FEF11
:103F800080931201809112011F928F9380E095E03F
:103F90005BC020911101862F90E0820F911D8F3F11
:103FA000910520F4620F6093110103C08FEF80939D
:103FB0001101809111011F928F938DEE94E044C006
:103FC00020911001862F90E0820F911D8F3F910567
:103FD00020F4620F6093100103C08FEF80931001F3
:103FE000809110011F928F9388ED94E02DC0209155
:103FF0000F01862F90E0820F911D8F3F910520F4D5
:10400000620F60930F0103C08FEF80930F018091C7
:104010000F011F928F938FEB94E016C020910E0139
:10402000862F90E0820F911D8F3F910520F4620F43
:1040300060930E0103C08FEF80930E0180910E01FB
:104040001F928F9384EA94E09F938F930E94F805C8
:104050000F900F900F900F900895833081F128F406
:10406000813059F08230D1F00895853009F449C08B
:10407000B8F1863009F456C008958091130168178D
:1040800020F4861B8093130102C0109213018091CB
:1040900013011F928F9385E994E054C0809112011F
:1040A000681720F4861B8093120102C0109212013F
:1040B000809112011F928F9383E894E043C0809116
:1040C0001101681720F4861B8093110102C0109221
:1040D0001101809111011F928F9380E794E032C00B
:1040E00080911001681720F4861B8093100102C094
:1040F00010921001809110011F928F938BE594E034
:1041000021C080910F01681720F4861B80930F0156
:1041100002C010920F0180910F011F928F9382E4D1
:1041200094E010C080910E01681720F4861B8093E4
:104130000E0102C010920E0180910E011F928F930A
:1041400087E294E09F938F930E94F8050F900F9061
:104150000F900F900895CF93C82F1F928F932CE24A
:1041600037E03F932F930E94F80561E070E080E014
:1041700090E004C0660F771F881F991FCA95D2F779
:104180000E94DF180F900F900F900F90CF910C941A
:10419000B014CF938732A8F58E3108F028C1803152
:1041A00009F49DC0F8F4873009F464C0A8F486309F
:1041B00009F021C18091EC01817F8E7F8093EC0119
:1041C00081E397E00E945F0585E19AE00E945F0528
:1041D00081E08093FC014CC08B30F1F18E3009F40A
:1041E0006BC009C1863109F4ADC020F4813109F4F6
:1041F000EAC001C1893109F48EC08B3109F449C08C
:10420000FAC0883349F150F4893209F4EEC085339D
:1042100009F4EBC0873209F0EEC0E7C0833409F43B
:10422000E4C028F48A3308F4E6C08953E1C0883436
:1042300009F0E1C00E94B01484E09AE00E945F059A
:104240002FEF83ED90E3215080409040E1F700C0D4
:1042500000000E946C1C0CC088E597E059C08BEEF2
:1042600099E00E945F058091EC0181608093EC01F0
:10427000C1E0C6C08091EC01C82FC17080FFEFCFB4
:1042800087EF99E00E945F058091EC01817F8E7F2E
:104290003AC08091EC0181FBCC27C0F991E0C9279D
:1042A000C0FB81F98093EC01CC2319F08EED99E0ED
:1042B00025C080ED99E02CC08091EC0182FBCC27D9
:1042C000C0F991E0C927C0FB82F98093EC01CC23AF
:1042D00019F081EC99E012C081EB99E019C080914E
:1042E000EC0183FBCC27C0F991E0C927C0FB83F91F
:1042F0008093EC01CC2351F085EA99E00E945F05A0
:104300008091EC0181608093EC017AC088E999E0AA
:104310000E945F05ADCF89E899E00E945F058CE5BA
:1043200099E00E945F0585E299E00E945F058EEFAB
:1043300098E00E945F0584EB98E00E945F0586E8A4
:1043400098E0E6CF88E798E00E945F050E94BC0EE7
:104350001F928F938EE598E09F938F930E94F805AC
:1043600080910A011F928F9387E498E09F938F9327
:104370000E94F805809177011F928F9384E398E063
:104380009F938F930E94F80580910B011F928F934A
:1043900081E298E09F938F930E94F8050E94E61BAC
:1043A0009F938F937F936F938AE098E09F938F936F
:1043B0000E94F8058DB79EB746960FB6F8949EBF3B
:1043C0000FBE8DBF55CF0E94B014C0910B0181E08C
:1043D000C827C0930B01CC2329F080E098E00E940D
:1043E0005F050EC085EF97E093CF80E001C08D514F
:1043F0000E94AB203DCF83EF97E00E945F05C0E0B5
:104400008C2FCF91089580E0089580E00895CF9398
:10441000C82F8091FC01813071F020F0823009F4C6
:1044200048C03FC1A0910C01B0910D018C91823226
:1044300009F039C107C0A0910C01B0910D018C9118
:10444000823249F48C2F0E94032281112FC08C2FBD
:104450000E94C9202CC08C2F0E940522811126C0E9
:10446000C431E1F070F4CB3081F0C031D1F40E945E
:10447000731F84E297E00E945F0582E08093FC0155
:1044800015C0C93259F0C83361F481E397E00E9446
:104490005F0588E297E00E945F0508C01092FC016A
:1044A00004C182E297E00E945F05FFC081E0817055
:1044B000FEC0C43228F5CE3108F0C1C0CB30A1F126
:1044C000D0F4C73009F0D3C08EE18093130182E3AA
:1044D000809312018AE08093110184E1809310019E
:1044E00088E080930F0188E280930E0188EC95E0CC
:1044F0000E945F05BFC0C33149F1C431C1F0B7C0EC
:10450000CB3409F4A9C028F4C93289F0C83361F06A
:10451000AEC0C13509F49EC0C23509F499C0CE348D
:1045200009F0A5C06AE09EC00E94731FA3C08091DD
:10453000FB01882319F01092FB019CC085ED95E0EA
:104540000E945F0581E08093FC01B1C08FEA95E095
:104550000E945F058DE995E00E945F05809113013F
:104560001F928F938AE995E09F938F930E94F8059D
:1045700088E995E00E945F0586E895E00E945F0566
:10458000809112011F928F9383E895E09F938F9300
:104590000E94F80581E895E00E945F0582E795E0BA
:1045A0000E945F05809111011F928F938FE695E025
:1045B0009F938F930E94F8058DE695E00E945F051A
:1045C0008CE595E00E945F05809110011F928F930A
:1045D00089E595E09F938F930E94F80587E595E024
:1045E0000E945F0582E495E00E945F0580910F01C3
:1045F0001F928F938FE395E09F938F930E94F8050E
:104600008DE395E00E945F0586E295E00E945F05DC
:1046100080910E011F928F9383E295E09F938F9379
:104620000E94F80581E295E00E945F058DB79EB774
:1046300048960FB6F8949EBF0FBE8DBF1BC0CE51DB
:10464000EC2FF0E0E25DFE4F80818093FB0112C011
:1046500061E003C061E006C06AE08091FB010E9456
:104660008A1F08C08091FB010E942D2003C086ECA8
:1046700095E013C08091FB01882369F01F928F930E
:1046800080EC95E09F938F930E94F8050F900F9018
:104690000F900F9004C08DEB95E00E945F0581E0C4
:1046A00006C01092FC0180E002C080E000CFCF91F4
:1046B000089504D06894B1118DC0089570D088F029
:1046C0009F5790F0B92F9927B751A0F0D1F0660FFE
:1046D000771F881F991F1AF0BA95C9F712C0B13019
:1046E00081F077D0B1E0089574C0672F782F8827C4
:1046F000B85F39F0B93FCCF3869577956795B39558
:10470000D9F73EF490958095709561957F4F8F4FC6
:104710009F4F0895E89409C097FB3EF490958095CB
:10472000709561957F4F8F4F9F4F9923A9F0F92F77
:1047300096E9BB279395F695879577956795B795F5
:10474000F111F8CFFAF4BB0F11F460FF1BC06F5FDB
:104750007F4F8F4F9F4F16C0882311F096E911C0ED
:10476000772321F09EE8872F762F05C0662371F00E
:1047700096E8862F70E060E02AF09A95660F771F22
:10478000881FDAF7880F9695879597F9089557FD52
:104790009058440F551F59F05F3F71F04795880FAF
:1047A00097FB991F61F09F3F79F087950895121646
:1047B00013061406551FF2CF4695F1DF08C01616F2
:1047C00017061806991FF1CF8695710561050894A3
:1047D0000895E894BB2766277727CB0197F90895BA
:1047E0000BD078C069D028F06ED018F0952309F06E
:1047F0005AC05FC01124EECFCADFA0F3959FD1F35A
:10480000950F50E0551F629FF001729FBB27F00D7E
:10481000B11D639FAA27F00DB11DAA1F649F6627D3
:10482000B00DA11D661F829F2227B00DA11D621F22
:10483000739FB00DA11D621F839FA00D611D221FDC
:10484000749F3327A00D611D231F849F600D211DC0
:10485000822F762F6A2F11249F5750408AF0E1F063
:1048600088234AF0EE0FFF1FBB1F661F771F881FAC
:1048700091505040A9F79E3F510570F014C0AACF47
:104880005F3FECF3983EDCF3869577956795B79597
:10489000F795E7959F5FC1F7FE2B880F911D9695C1
:1048A000879597F9089597F99F6780E870E060E031
:1048B00008959FEF80EC089500240A9416161706B9
:1048C00018060906089500240A9412161306140601
:1048D00005060895092E0394000C11F4882352F064
:1048E000BB0F40F4BF2B11F460FF04C06F5F7F4F1C
:1048F0008F4F9F4F0895991B79E004C0991F961719
:1049000008F0961B881F7A95C9F78095089597FB44
:10491000072E16F4009407D077FD09D00E94A12439
:1049200007FC05D03EF4909581959F4F08957095B2
:1049300061957F4F0895EE0FFF1F0590F491E02DD4
:104940000994AA1BBB1B51E107C0AA1FBB1FA617D6
:10495000B70710F0A61BB70B881F991F5A95A9F728
:0E49600080959095BC01CD010895F894FFCF8D
:10496E000907FA07D707A30770070101CA0128082C
:10497E00140A321E404D362239F702AA0274025230
:10498E000219028C01A501BE01D701F70100010237
:08499E000304050607080900E7
:106800000000000000000000040005000600070072
:10681000080009000A000B000C000D000E000F001C
:1068200010001100120013001400150016001700CC
:10683000180019001A001B001C001D001E001F007C
:10684000200021002200230024002500260027002C
:106850002800000035002B002C002D002E002F00FA
:1068600030002A00000033003400290036003700D1
:106870003800E00000000000000000000000000000
:106880000000000000000000000000000000000008
:1068900000000000000000000000000000000000F8
:1068A00000000000000000000000000000000000E8
:1068B00000000000000000000000000000000000D8
:1068C00000000000000000000000000000000000C8
:1068D00000000000000000000000000000000000B8
:1068E0000000000000000000310000000000000077
:1068F0000000E100E200E300F1A1E500E600E700AE
:106900000000000000000000EA4401000100E24431
:106910000100010001005500460054004A004B00F0
:10692000560057004700480001000100E9440100FB
:106930000100010001000100010001003A003B00DC
:106940003C003D003E003F0040004100420043004B
:10695000580000004C00390001004400450052007E
:1069600001000100000050004F0081404D004E002A
:1069700051000100000000000000000000000000C5
:106980000000000000000000000000000000000007
:1069900000000000000000000000000000000000F7
:1069A00000000000000000000000000000000000E7
:1069B00000000000000000000000000000000000D7
:1069C00000000000000000000000000000000000C7
:1069D00000000000000000000000000000000000B7
:1069E000000000000000000049000000000000005E
:1069F0000000010001000100010001000100010090
:00000001FF
